:020000040800F2
:1000000000000220917A000885090008870900088D
:10001000890900088B0900088D090008000000000C
:100020000000000000000000000000008F09000830
:1000300091090008000000009309000895090008D4
:10004000E17A0008E17A0008E17A0008E17A000824
:10005000E17A0008E17A0008E17A0008E17A000814
:10006000E17A0008E17A0008E17A00089D090008B9
:10007000E17A0008E17A0008E17A0008E17A0008F4
:10008000E17A0008E17A0008E17A0008E17A0008E4
:10009000E17A0008E17A0008E17A0008E17A0008D4
:1000A000E17A0008E17A0008E17A0008E17A0008C4
:1000B000E17A0008E17A0008E17A0008E17A0008B4
:1000C000E17A0008E17A0008E17A0008AD09000849
:1000D000E17A0008E17A0008E17A0008E17A000894
:1000E000E17A0008E17A0008E17A0008E17A000884
:1000F000E17A0008E17A0008E17A0008E17A000874
:10010000E17A0008E17A0008E17A0008E17A000863
:10011000E17A0008E17A0008E17A0008E17A000853
:10012000E17A0008E17A0008E17A0008E17A000843
:10013000E17A00080000000000000000E17A0008F9
:10014000E17A0008E17A0008E17A0008E17A000823
:10015000E17A0008E17A0008E17A0008E17A000813
:10016000E17A0008E17A0008E17A0008E17A000803
:10017000E17A0008BD090008E17A000800000000EB
:10018000E17A0008E17A0008E17A0008E17A0008E3
:10019000E17A0008E17A0008E17A0008E17A0008D3
:1001A000E17A0008E17A0008E17A0008E17A0008C3
:1001B000E17A0008E17A0008E17A0008E17A0008B3
:1001C000E17A0008E17A0008000000000000000069
:1001D0000000000000000000E17A000800000000BC
:1001E000000000000000000000000000000000000F
:1001F0000000000000000000E17A0008E17A000839
:10020000E17A0008E17A000800000000E17A0008C5
:10021000E17A0008E17A0008E17A0008E17A000852
:10022000E17A0008E17A0008E17A000800000000A5
:10023000E17A0008E17A000800000000E17A000895
:10024000E17A0008E17A0008E17A0008E17A000822
:10025000E17A0008E17A0008E17A0008E17A000812
:10026000E17A0008E17A0008E17A0008E17A000802
:10027000E17A0008E17A0008E17A00080000000055
:10028000E17A0008E17A000800000000E17A000845
:1002900000000000E17A0008E17A00080000000098
:0C02A00000000000E17A0008E17A00088C
:1002AC0053B94AB9002908BF00281CBF4FF0FF31D1
:1002BC004FF0FF3000F00CB8ADF1080C6DE904CE36
:1002CC0007F036FCDDF804E0DDE9022304B07047EA
:1002DC00704700BF0348044B834202D0034B03B169
:1002EC0018477047FC000020FC00002000000000B4
:1002FC000548064B1B1AD90F01EBA301491002D07C
:10030C00034B03B118477047FC000020FC00002091
:10031C000000000010B5064C237843B9FFF7DAFF54
:10032C00044B13B10448AFF300800123237010BDBC
:10033C00FC00002000000000F87D000808B5054B0B
:10034C001BB105490548AFF30080BDE80840FFF735
:10035C00CFBF00BF0000000000010020F87D0008A6
:10036C0072B6FEE700B59DB04C22002109A807F03B
:10037C00B2FB2022002101A807F0ADFB264B4FF069
:10038C00FF32C3F8B020042005F014F900230093C9
:10039C00224B9A6942F440429A619B6903F44043B0
:1003AC000093009B1D4B9B6913F4005FFAD0212333
:1003BC0009934FF4A0230A9301220F920223129364
:1003CC0013931492462215921693042217921893A3
:1003DC000C23199300231A931B9309A802F0CCF950
:1003EC00A8B93F230193032302930023039304939F
:1003FC004023059306934FF48062079208930721DC
:10040C0001A802F0E5FD20B91DB05DF804FBFFF773
:10041C00A7FFFFF7A5FF00BF004402580048025891
:10042C0008B505F0BBF9FFF79DFF00F021F800F0CF
:10043C00EFF800F009F900F07FF900F01DFA00F078
:10044C00D1FA4FF47A7005F0E9F9084C4FF4804179
:10045C00204604F093F84FF47A7005F0DFF94FF46E
:10046C008041204604F08AF8EBE700BF00040258F4
:10047C002DE9F0438FB0002409940A940B940C944A
:10048C000D945D4BD3F8402142F00402C3F8402197
:10049C00D3F8402102F004020192019AD3F84021D2
:1004AC0042F02002C3F84021D3F8402102F0200290
:1004BC000292029AD3F8402142F08002C3F8402104
:1004CC00D3F8402102F080020392039AD3F8402122
:1004DC0042F00102C3F84021D3F8402102F001029E
:1004EC000492049AD3F8402142F00202C3F840214E
:1004FC00D3F8402102F002020592059AD3F840216C
:10050C0042F00802C3F84021D3F8402102F008025F
:10051C000692069AD3F8402142F04002C3F84021DB
:10052C00D3F8402102F040020792079AD3F84021F9
:10053C0042F01002C3F84021D3F8403103F010030D
:10054C000893089BDFF8C09022464FF48061484620
:10055C0004F00EF8DFF8B48022464FF20101404659
:10056C0004F006F8254E22464021304604F000F8EF
:10057C00234F22460221384603F0FAFF4FF4005372
:10058C0009930A940B9409A9304603F0E1FE4FF449
:10059C008063099301250A950B940C9409A948468C
:1005AC0003F0D6FE4FF2010309930A950B940C94B9
:1005BC0009A9404603F0CCFE802309934FF488131D
:1005CC000A930B9409A90F4803F0C2FE4023099328
:1005DC000A950B940C9409A9304603F0B9FE02233A
:1005EC0009930A950B940C9409A9384603F0B0FEB4
:1005FC000FB0BDE8F08300BF004402580008025859
:10060C000010025800180258001402580004025836
:10061C0000B583B00B4BD3F8382142F00102C3F87C
:10062C003821D3F8383103F001030193019B0022E8
:10063C0011460B2005F062F80B2005F06FF803B0A3
:10064C005DF804FB0044025808B51248124B0360D5
:10065C00124B4360002383600122C260036143613B
:10066C008361C361036205F0EDF850B900210948BC
:10067C0005F046F940B90021064805F06FF930B98C
:10068C0008BDFFF76DFEF1E7FFF76AFEF3E7FFF732
:10069C0067FEF5E71801002000540040FFCCB020A5
:1006AC0010B5B8B004460021339134913591369190
:1006BC003791C02202A807F00EFA22681B4B9A420F
:1006CC0001D038B010BD08220023CDE9022302A8C6
:1006DC0002F01AFF30BB164CD4F8403143F0020341
:1006EC00C4F84031D4F8403103F002030093009B6E
:1006FC00C02333931223349300233593369304236E
:10070C00379333A90B4803F023FED4F8483143F454
:10071C000013C4F84831D4F8483103F400130193A2
:10072C00019BCEE7FFF71CFED5E700BF005400404D
:10073C00004402580004025808B51448144B0360D6
:10074C004FF480034360002383600722C26003617F
:10075C0043614FF0005282614FF04052C26103621C
:10076C0043628362C3624FF0804242638363C3631C
:10077C00036443648364C36403654365836505F064
:10078C0089F900B908BDFFF7EBFDFBE7E401002098
:10079C000030014030B5B9B004460021339134919A
:1007AC00359136913791C02202A807F094F922684E
:1007BC002C4B9A4201D039B030BD4FF480520023FB
:1007CC00CDE9022302A802F09FFE002844D1264B5B
:1007DC00D3F8502142F48052C3F85021D3F8502161
:1007EC0002F480520092009AD3F8402142F00102A8
:1007FC00C3F84021D3F8403103F001030193019B6E
:10080C00F023339302233493002535953695052335
:10081C00379333A9154803F09BFD1548154B03601E
:10082C002623436040238360C5604FF480630361DB
:10083C0045618561C5610562456203F0E1FF70B9F0
:10084C000B4BA3679C6300221146232004F056FF38
:10085C00232004F063FFAEE7FFF782FDB7E7FFF755
:10086C007FFDEDE7003001400044025800000258C3
:10087C006C0100201000024008B51748174B0360AC
:10088C004FF4E133436000238360C36003610C22A7
:10089C0042618361C36103624362836205F093FF2B
:1008AC0070B900210C4806F006F860B900210A481E
:1008BC0006F026F850B9084805F0DEFF48B908BD27
:1008CC00FFF74EFDEDE7FFF74BFDEFE7FFF748FDB8
:1008DC00F1E7FFF745FDF2E76C020020004800400D
:1008EC0010B5B8B00446002133913491359136914E
:1008FC003791C02202A807F0EEF822681B4B9A42EF
:10090C0001D038B010BD02220023CDE9022302A889
:10091C0002F0FAFD38BB164BD3F8482142F4802282
:10092C00C3F84821D3F8482102F480220092009A9F
:10093C00D3F8402142F00802C3F84021D3F84031EB
:10094C0003F008030193019B4FF44073339302238C
:10095C0034930023359336930723379333A90548F3
:10096C0003F0F6FCCDE7FFF7FBFCD4E700480040B2
:10097C0000440258000C0258FEE7FEE7FEE7FEE7D3
:10098C00FEE770477047704708B504F035FF08BDA7
:10099C0008B5024804F058FA08BD00BF6C010020ED
:1009AC0008B5024805F050F908BD00BFE40100206D
:1009BC0008B5024800F0E0FD08BD00BFFC1900209E
:1009CC0082B0074BD3F8542142F00202C3F85421F1
:1009DC00D3F8543103F002030193019B02B070472A
:1009EC000044025808B501221049114806F004F8D9
:1009FC0080B910490E4806F016F870B90E490C482B
:100A0C0006F0FEFF60B90A4806F027F858B904F062
:100A1C001BFE08BDFFF7A4FCEBE7FFF7A1FCEDE71D
:100A2C00FFF79EFCEFE7FFF79BFCF0E7340000209C
:100A3C0000030020B80000205000002012230B807F
:100A4C00004870472000002004230B8000487047AA
:100A5C001C000020002393421ED200B510E00CF1C4
:100A6C00370C01F813C000014FEA430C0CF1010CD8
:100A7C004FF0000E01F80CE00133DBB2934209D2C7
:100A8C004FEA107CB0F1204FE9D20CF1300C01F898
:100A9C0013C0E8E75DF804FB7047000038B50B4B5A
:100AAC00D3F80008D3F80448D3F80838C01800D19C
:100ABC0038BD074D08222946FFF7CCFF042205F16B
:100ACC0010012046FFF7C6FFF2E700BF00F0FF0859
:100ADC000200002008B51A230B80FFF7DFFF014846
:100AEC0008BD00BF0000002008B50A4628B905491A
:100AFC00054806F003FD034808BD0249024806F00C
:100B0C00FDFCF8E7DC050020107E000810B50A4655
:100B1C00034C2146034806F0F1FC204610BD00BFF3
:100B2C00DC050020287E000808B50A4628B90549CE
:100B3C00054806F0E3FC034808BD0249024806F0EC
:100B4C00DDFCF8E7DC0500203C7E000808B50A4611
:100B5C0028B90549054806F0D1FC034808BD0249EF
:100B6C00024806F0CBFCF8E7DC050020487E0008C4
:100B7C0000207047002070470020704710B50146D8
:100B8C00044C204606F055FF204606F05EFF002080
:100B9C0010BD00BF0003002010B5064C0022064912
:100BAC00204606F038FF0549204606F042FF00209B
:100BBC0010BD00BF00030020DC070020DC0F00206C
:100BCC00F0B5B9B00446002133913491359136918A
:100BDC003791C02202A806F07EFF22682D4B9A4264
:100BEC0001D039B0F0BD4FF480220023CDE90223AF
:100BFC004FF44013269302A802F086FC002845D13E
:100C0C0004F022FD244DD5F8403143F00103C5F822
:100C1C004031D5F8403103F001030093009B4FF4B1
:100C2C00007333930024349435941C4E33A930460E
:100C3C0003F08EFB4FF48063339302273497359483
:100C4C0036940A23379333A9304603F081FB4FF4D3
:100C5C00C053339334973594369433A9304603F00C
:100C6C0077FBD5F8383143F00073C5F83831D5F837
:100C7C00383103F000730193019B224621464D202D
:100C8C0004F03CFD4D2004F049FDAAE7FFF768FB9A
:100C9C00B6E700BF000004400044025800000258B0
:100CAC0008B500F2C441D0F8080505F0ECFE08BD0B
:100CBC0008B501EBC10300EB8303D3F88822D0F80D
:100CCC00080505F0B2FF08BD08B501EBC10300EB48
:100CDC0083039A6CD0F8080506F00AF808BD08B52D
:100CEC00D0F8080505F04CFF08BD10B504460369A3
:100CFC003BB1022B01D1012104E0FFF731FB0121B3
:100D0C0000E00021D4F8080505F01BFFD4F8080515
:100D1C0005F0E5FE10BD000010B50446D0F808053E
:100D2C0005F012FF2268D2F8003E43F00103C2F82E
:100D3C00003E236A23B1034A136943F0060313618F
:100D4C0010BD00BF00ED00E008B5D0F8080505F0B7
:100D5C000AFF08BD08B5D0F8080505F039FF08BD35
:100D6C0008B5D0F8080505F01CFF08BD08B5D0F88B
:100D7C00080505F044FF08BD08B5D0F8080505F0D6
:100D8C0040FF08BD0378012B01D00020704710B53F
:100D9C00174BC3F80805C0F8C832164A1A60092266
:100DAC005A60022119610022DA609961DA611A62D3
:100DBC005A620121D9621A635A63184600F0F4F89A
:100DCC0090B90B4C4FF40071204600F0FEFE8022CF
:100DDC000021204600F0D3FE4FF4BA7201212046C8
:100DEC0000F0CDFE002010BDFFF7BAFAE9E700BF16
:100DFC00FC19002000000440D0F8C83211F0800F1C
:100E0C0008D101F07F0101EBC10103EB810393F8E1
:100E1C007E02704701F07F0101EBC10103EB8103FE
:100E2C0093F83E00704708B5D0F8C80200F0DDFA20
:100E3C0008BD000000487047DC17002070470328ED
:100E4C0005D8DFE800F005040205012070470320F7
:100E5C00704708B5D0F8C80200F044F9FFF7EFFF6F
:100E6C0008BD08B594461A466346D0F8C80200F08F
:100E7C0019FAFFF7E4FF08BD08B5D0F8C80200F076
:100E8C0056FAFFF7DCFF08BD08B5D0F8C80200F031
:100E9C00DAFAFFF7D4FF08BD08B5D0F8C80200F0A5
:100EAC0016FBFFF7CCFF08BD08B5D0F8C80200F060
:100EBC00E5F9FFF7C4FF08BD08B5D0F8C80200F08B
:100ECC009DFAFFF7BCFF08BD08B5D0F8C80200F0CA
:100EDC0067FAFFF7B4FF08BD2DE9F04383B0D0F8F3
:100EEC00008001EBC10300EB83031A6DDB6C9A42AB
:100EFC0054D807460C469B1A01EBC10200EB820248
:100F0C00526C9A4200D31A4602F103094FEA99092E
:100F1C0015E006F103094FEA990904EBC40507EB48
:100F2C008505A96C3B7B0093B3B2E2B2404601F05D
:100F3C00A0F9AB6C3344AB642B6D33442B6508EBDD
:100F4C00441303F510639B699BB24B4512D304EB1E
:100F5C00C40307EB83031A6DDB6C9A420AD24BB1C4
:100F6C009B1A04EBC40207EB8202566C9E42D0D350
:100F7C001E46CEE704EBC40307EB8307FA6C3B6D0C
:100F8C009A420FD804F00F040122A240D8F834384A
:100F9C0023EA0203C8F83438002000E0012003B033
:100FAC00BDE8F0830020FAE770B58AB0002800F0A5
:100FBC0097800546046890F8BD343BB3032385F84D
:100FCC00BD34E36B13F4807F01D10023EB60286800
:100FDC0000F004FF2C4654F8106BEC460FCCACE838
:100FEC000F000FCCACE80F0094E803008CE8030072
:100FFC002B1D0ECB304600F02BFE044658B10223BD
:10100C0085F8BD34012420460AB070BD80F8BC348C
:10101C00FFF7D6FDD2E70021286801F03CFB234600
:10102C0016E003EBC30205EB8202012182F83D10AE
:10103C0082F83C30A2F85630002182F840105164FE
:10104C00916403EBC30205EB8202D1640133DBB282
:10105C0069688B42E5D316E004EBC40305EB83030C
:10106C00002283F87D2283F87C4283F88022C3F827
:10107C008422C3F8882204EBC40305EB8303C3F872
:10108C008C220134E4B2A142E6D82C4654F8106B01
:10109C00EC460FCCACE80F000FCCACE80F0094E89A
:1010AC0003008CE803002B1D0ECB304600F0F2FE43
:1010BC00044660B9002385F83830012385F8BD3427
:1010CC006B6A012B08D0286801F0A4FA9BE7022375
:1010DC0085F8BD34012496E7284600F07BFDF2E745
:1010EC00012490E7036890F8BC24012A1AD010B5AB
:1010FC000446012280F8BC24DA6B12F4807F02D102
:10110C00826A012A09D0206800F062FE206801F092
:10111C0073FA002084F8BC0410BD9A6B42F4803240
:10112C009A63F0E70220704770B504460D460068DC
:10113C00066C00EB411303F530639A68E1680129F2
:10114C0011D038498E4256D03DB905EBC50304EB9E
:10115C008303D3F88C32002B5ED0E9B22046FFF724
:10116C00A7FD002070BD12F0080F09D02E498E4249
:10117C00F7D912F4004FF4D04FF400429A60F0E724
:10118C0012F0200F02D020229A60EAE712F0280F0A
:10119C00E7D125498E4206D912F4004F03D04FF403
:1011AC0000429A60DDE705EBC50204EB8202D2F83F
:1011BC009C121B69C3F31203CB1AC2F890327DB98F
:1011CC0005EBC50204EB8202D2F88C226AB105EB66
:1011DC00C50204EB8202D2F888121944C2F88812B4
:1011EC00E9B22046FFF764FDBBE704F2C4420121DB
:1011FC0001F092FAF4E712F4004F03D04FF40042DE
:10120C009A60AEE712F0200F01D020229A60E9B26A
:10121C002046FFF74DFDA4E704F2C442002101F083
:10122C007BFA9AE70A31544F0A30544F38B50446CA
:10123C0003681D6C03EB4113D3F8081B0E4A95424F
:10124C0007D903F5306311F4004F02D04FF400427C
:10125C009A602046FFF724FD074B9D4202D9E368B4
:10126C00012B01D0002038BD04F2C44201212068BA
:10127C0001F052FAF6E700BF0A30544F90F8BC3434
:10128C00012B0DD010B50446012380F8BC3480F836
:10129C003810006801F0A0F9002084F8BC0410BDDF
:1012AC000220704738B505468C4611F0800F29D1C5
:1012BC0001F00F0E0EEBCE04A40004F51E740444D2
:1012CC00211D0EEBCE0E00EB8E0E00208EF87D0253
:1012DC000CF00F0C81F800C08A600B714A780AB1CF
:1012EC00A1F81AC0022B1DD095F8BC34012B1CD0D0
:1012FC00012385F8BC34286800F0A0FE002085F896
:10130C00BC0438BD01F00F0000EBC001890038317E
:10131C002944043100EBC00005EB8000012480F867
:10132C003D40D5E700234B71DEE70220E9E710B51D
:10133C0004460A4611F0800F20D101F00F0000EB9B
:10134C00C0039B0003F51E732344191D00EBC00062
:10135C0004EB8000002380F87D3202F00F020A704B
:10136C0094F8BC34012B19D0012384F8BC342068C8
:10137C0000F0B0FE002084F8BC0410BD01F00F009A
:10138C0000EBC0039B0038332344191D00EBC00055
:10139C0004EB8000012380F83D30DEE70220ECE70F
:1013AC0008B501F00F0C0CEBCC01890001F51E7196
:1013BC00014404310CEBCC0E00EB8E0ECEF88822DF
:1013CC00CEF88C320023CEF890328EF87D328EF827
:1013DC007CC2C368012B05D0DAB2006800F060FF54
:1013EC00002008BDCEF89822F6E701F00F0101EBC2
:1013FC00C10100EB8100D0F89002704708B501F0F4
:10140C000F0C0CEBCC0189003831014404310CEB8E
:10141C00CC0E00EB8E0ECEF84820CEF84C300023CC
:10142C00CEF8503001238EF83D308EF83CC0C368A6
:10143C00012B05D0DAB2006800F032FF002008BDA5
:10144C00CEF85820F6E738B501F00F054268954202
:10145C0039D804460B4611F0800F1FD101EBC101A6
:10146C00890001F51E710144043103EBC30300EB49
:10147C008303002283F87D2201238B700D7094F876
:10148C00BC34012B21D0012384F8BC34206801F03A
:10149C0048F88DB1002084F8BC0438BD05EBC501BB
:1014AC00890038310144043105EBC50300EB83039B
:1014BC00012283F83D20DFE704F2C442217B20683F
:1014CC0001F02AF9E6E70120E7E70220E5E701F061
:1014DC000F034268934231D810B5044611F0800FC7
:1014EC001ED103EBC301890001F51E7101440431C7
:1014FC0003EBC30200EB8202002082F87D02002283
:10150C008A700B7094F8BC34012B19D0012384F829
:10151C00BC34206801F032F8002084F8BC0410BD03
:10152C0003EBC301890038310144043103EBC302DE
:10153C0000EB8202012082F83D00E0E701207047B9
:10154C000220ECE708B511F0800F0CD101F00F016F
:10155C0001EBC101890001F51E71014404310068E1
:10156C0000F028FE08BD01F00F0101EBC10189005C
:10157C00383101440431F2E72DE9F04F83B00446D1
:10158C000568284601F083F810B103B0BDE8F08F70
:10159C000646206801F04CF80028F6D005F50067E7
:1015AC00BB68C3F30D23C4F8FC34206801F040F889
:1015BC0010F0020F04D02268536903F00203536148
:1015CC00206801F035F810F0100F14D022689369E0
:1015DC0023F010039361D5F8208008F00F09C8F3AD
:1015EC004343022B69D0062B00F08D80226893694F
:1015FC0043F010039361206801F01AF810F4002FE7
:10160C0040F09380206801F013F810F4802F40F024
:10161C00FC80206801F00CF80028C0F27F81206863
:10162C0001F006F810F4006F09D0BB6813F0010F3D
:10163C0040F08C812268536903F400635361206885
:10164C0000F0F6FF10F0006F15D02268536903F01C
:10165C000063536194F8F434002B40F07B8101213A
:10166C0084F8F41423685B6DC3F38303C4F8F83473
:10167C00204600F0C3FA206800F0DAFF10F4805F17
:10168C0040F06C81206800F0D3FF10F4005F40F054
:10169C00B881206800F0CCFF10F0080F40F0C98131
:1016AC00206800F0C5FF10F0800F00F0DC81AB6902
:1016BC0023F08003AB610126C5E147F6F07318EA0D
:1016CC00030F93D04FEA181A4FEAC903019309EBA1
:1016DC00C90B04EB8B0BC8F30A12DBF888122846F3
:1016EC0000F0FCFEDBF88832CAF30A0A5344CBF84C
:1016FC008832DBF89032019A4A4404EB820253445C
:10170C00C2F8903272E7082204F2C441284600F075
:10171C00E5FE09EBC90304EB8303D3F89022C8F36D
:10172C000A184244C3F8902260E7206800F084FF56
:10173C008046B14635E005EB49130122C3F8082B6E
:10174C0049462046FFF7F0FC3CE005EB4913082224
:10175C00C3F8082B49462046FFF768FD35E009EB36
:10176C00C90304EB830393F87F32012B41D005EBC3
:10177C0049130222C3F8082B1AF0200F04D005EBF2
:10178C0049132022C3F8082B1AF4005F05D005EB8F
:10179C0049134FF40052C3F8082B09F101094FEA21
:1017AC005808B8F1000F3FF42DAF18F0010FF4D02A
:1017BC005FFA89FB5946206800F04EFF824610F014
:1017CC00010FB8D11AF0080FBFD11AF0100F04D0C6
:1017DC0005EB49131022C3F8082B1AF0020FCBD0DB
:1017EC006B6913F0800FBAD07B6843F480637B6025
:1017FC00B5E709EBC90304EB8303002283F87F22CE
:10180C0059462046FFF7A6FAB1E7206800F01CFF06
:10181C008046B14625E059462046FFF755FA1AF0A6
:10182C00080F04D005EB49130822C3F808291AF055
:10183C00100F04D005EB49131022C3F808291AF035
:10184C00400F04D005EB49134022C3F808291AF0C5
:10185C00020F40D11AF0800F5BD109F101094FEA58
:10186C005808B8F1000F3FF4D4AE18F0010FF4D0C3
:10187C005FFA89FB5946206800F0F7FE824610F0AB
:10188C00010FCCD009F00F02012101FA02F27B6B9F
:10189C0023EA02037B6305EB4913C3F80819E368D9
:1018AC008B42B8D109EBC90304EB83039A6C596CD6
:1018BC000A449A64B9F1000FADD109EBC90304EBEA
:1018CC008303DB6C002BA6D104F2C44201212068F7
:1018DC0000F022FF9FE74946284600F085FA09EB05
:1018EC00C90304EB830393F83F30012B05D005EBC0
:1018FC0049130222C3F80829ACE709EBC90304EB2E
:10190C008303002283F83F2059462046FFF728FA2C
:10191C00EDE749462046FFF7DFFA9EE77B6823F0A8
:10192C0001037B6094F8F434012B08D02046FFF7B8
:10193C000BFA2268536903F0004353616FE60021F0
:10194C0084F8F414204600F059F9F2E72046FFF72A
:10195C00E3F96FE62046FFF7DFF98CE67B6823F0AE
:10196C0001037B601021206800F03EFA1AE005EBC1
:10197C0046134FF67F31C3F80819D3F8002922F427
:10198C000012C3F80029C3F8081BD3F8002B22F46B
:10199C000012C3F8002BD3F8002B42F00062C3F8FE
:1019AC00002B01366368B342E1D8FB6943F00113A5
:1019BC00FB61236BDBB1D7F8843043F00B03C7F822
:1019CC0084307B6C43F00B037B64D5F8003823F434
:1019DC00FE63C5F8003804F2C442217B206800F095
:1019EC009BFE2268536903F4805353614AE67A697B
:1019FC0042F22B0313437B613B6943F00B033B61C6
:101A0C00E3E7206800F078FE206800F007FB206117
:101A1C00266801F027FC0146227C304600F066F96E
:101A2C002046FFF762F92268536903F400535361AF
:101A3C002FE62046FFF753F92268536903F0080399
:101A4C0053612DE601366368B3420CD906EBC6032D
:101A5C0004EB830393F87F32012BF3D1F1B22046D0
:101A6C00FFF770FDEEE7206800F0E2FD10F4801F38
:101A7C0027D1206800F0DCFD10F4001F5BD001239F
:101A8C0028E001366368B3421DD905EB4613D3F841
:101A9C00002906EBC60304EB830393F84030012BBB
:101AAC00EFD1002AEDDA06EBC60304EB8303012227
:101ABC0083F83F2066F07F01C9B22046FFF742FD54
:101ACC00DFE70126DEE72268536903F480135361D4
:101ADC00CFE7013362689A4228D905EB4312D2F85A
:101AEC00001B03EBC30204EB820292F88022012A52
:101AFC00EFD10029EDDA01F48031D4F8FC2402F0A6
:101B0C0001029142E5D103EBC30204EB82020121F5
:101B1C0082F87F12AA6942F08002AA616A6912F007
:101B2C00800FD6D17B6843F400737B6022685369C5
:101B3C0003F400135361206800F07AFD10F0804F1D
:101B4C0010D1206800F074FD10F0040F3FF41DADAF
:101B5C0023685D6815F0040F0DD1226853682B4380
:101B6C00536012E52046FFF701F92268536903F030
:101B7C0080435361E5E72046FFF7FEF8EDE710B42C
:101B8C000468606A31B940EA0240A06200205DF846
:101B9C00044B70478C46A36A00EB1340002308E00B
:101BAC0003F1400104EB8101496800EB1140013362
:101BBC00DBB20CF1FF318B42F2D340EA02400CF164
:101BCC003F0104EB81046060E0E703685962002088
:101BDC0070470000034602680121C0F80015002080
:101BEC0083F8F404936943F000639361516D024BE5
:101BFC000B435365704700BF030000107047000093
:101C0C0082B000230193019B01330193019A0F4B86
:101C1C009A4215D80369002BF5DA00230193036966
:101C2C0043F001030361019B01330193019A074BBC
:101C3C009A4208D8036913F0010FF4D1002000E098
:101C4C00032002B070470320FBE700BF400D0300E8
:101C5C0084B010B5044603A880E80E00089B012B45
:101C6C001DD1A36B23F48033A363E2681D4B134097
:101C7C00E360E36823F44013E3600F9B012B09D06E
:101C8C002046FFF7BDFF059B012B1BD0BDE8104084
:101C9C0004B07047E36843F48013E360F0E7E36853
:101CAC0043F04003E3602046FFF7AAFF0C9B23B9E7
:101CBC00A36B43F48033A363E5E7A36B23F4803376
:101CCC00A363E0E7E36D9BB2E365E26D064B134360
:101CDC00E365A36843F00603A360A36843F0200305
:101CEC00A360D3E7BFFFBDFF0000EE03022A0AD0BA
:101CFC000922C36823F47053C360C36843EA822388
:101D0C00C36000207047204B0B44204A934229D9D2
:101D1C001F4B0B441F4A934226D91F4B0B441F4A9F
:101D2C00934223D91E4B0B441E4A934220D31E4B85
:101D3C000B441E4A93421DD91D4B0B441D4A934222
:101D4C001AD31D4B0B441D4A934217D31C4B0B4407
:101D5C001C4A934214D31C4B0B441C4A934211D281
:101D6C000722C6E70F22C4E70E22C2E70D22C0E706
:101D7C000C22BEE70B22BCE70A22BAE70922B8E71D
:101D8C000822B6E70622B4E7405327FFFF340C00C5
:101D9C00401E1BFF3F420F0000DC0BFF7F4F120069
:101DAC00808CF9FE20D6130060B6E5FE5FE31600CA
:101DBC0000D3CEFE40771B00C05BB3FEC091210068
:101DCC0000CA91FE20753800E05459FEE09C410099
:101DDC00836843F00103836000207047836823F01D
:101DEC00010383600020704782B000230193019BA4
:101DFC0001330193019A0F4B9A4215D80369002BBA
:101E0C00F5DA00230193890141F020010161019B66
:101E1C0001330193019A074B9A4208D8036913F0D6
:101E2C00200FF4D1002000E0032002B07047032003
:101E3C00FBE700BF400D030082B000230193019B20
:101E4C0001330193019A0E4B9A4213D80369002B6C
:101E5C00F5DA0023019310230361019B01330193F5
:101E6C00019A074B9A4208D8036913F0100FF4D16A
:101E7C00002000E0032002B070470320FBE700BF06
:101E8C00400D0300D0F800381943C0F800180020AA
:101E9C007047000084B02DE9F041044607A880E8A3
:101EAC000E00002306E003F1400204EB8202002145
:101EBC00516001330E2BF6D9119F27BBD4F804388F
:101ECC0043F00203C4F80438A36B23F40013A36398
:101EDC00236843F040032360236843F080032360AE
:101EEC000023C4F8003E04F50065D4F80038C4F8AB
:101EFC0000380C9B012B10D10A9B4BB900212046BA
:101F0C00FFF7C0FF0DE0A36B43F40013A363E7E7F7
:101F1C0001212046FFF7B6FF03E003212046FFF71F
:101F2C00B1FF10212046FFF75FFF804608B14FF04C
:101F3C0001082046FFF780FF08B14FF0010800238D
:101F4C002B616B61EB610AE0C3B94FF00060C2F822
:101F5C00000900220A614FF67F328A60013307992B
:101F6C00994210D904EB431202F51061D2F8000922
:101F7C000028E9DB0020C2F80009EAE74FF09040A6
:101F8C00C2F80009E5E700230AE0C3B14FF0904C1A
:101F9C00C2F800CB002202614FF67F32826001331F
:101FAC00994211D904EB431202F53060D2F8006B60
:101FBC00002EEADB4FF0000CC2F800CBEAE74FF042
:101FCC00006CC2F800CBE5E72B6923F480732B611E
:101FDC000023A3616FF080436361099B1BB9A36964
:101FEC0043F01003A361A2690A4B1343A3610D9B39
:101FFC001BB1A36943F00803A361012F04D0404631
:10200C00BDE8F04104B07047A269034B1343A361D0
:10201C00F5E700BF00383C8004000040D0F80838D9
:10202C0013F0060305D0062B18BF022B03D1022098
:10203C007047002070470F207047000010B591F8D2
:10204C0000C04B78012B21D000F5006ED0F81C3865
:10205C000CF00F040122A24043EA0243C0F81C38E2
:10206C0000EB4C10D0F8003B13F4004F0CD1D0F81F
:10207C00002B8B68C3F30A03097943EA81431A43A3
:10208C00134B1343C0F8003B002010BDD0F81C28A4
:10209C000CF00F0E03FA0EF39BB21343C0F81C386E
:1020AC0000EB4C10D0F8003913F4004FECD1D0F801
:1020BC0000298B68C3F30A03097943EA814343EA95
:1020CC008C531A43024B1343C0F80039DCE700BFB2
:1020DC000080001030B40B784A78012A26D000EB2F
:1020EC004313D3F8002B002A52DBD0F83C480A7873
:1020FC0002F00F024FF0010C0CFA02F224EA024239
:10210C00C0F83C28D0F81C28097801F00F010CFA13
:10211C0001FC22EA0C42C0F81C28D3F8001B234A0D
:10212C000A40C3F8002B002030BC704700EB43136F
:10213C00D3F80029002A1EDBD0F83C580A7802F0AC
:10214C000F02012404FA02F292B225EA0202C0F84C
:10215C003C28D0F81C28097801F00F018C40A4B25F
:10216C0022EA0402C0F81C28D3F80019104A0A40CD
:10217C00C3F80029D7E7D3F8002942F00062C3F86E
:10218C000029D3F8002942F08042C3F80029D3E794
:10219C00D3F8002B42F00062C3F8002BD3F8002BCD
:1021AC0042F08042C3F8002B9FE700BF0078F3EFAA
:1021BC00007833EC10B483B00246002301934878C6
:1021CC0001280BD00B7802EB4313D3F8000B00283B
:1021DC002DDB002003B05DF8044B70470B7802EB4D
:1021EC004313D3F80049002C01DB0020F2E7D3F8AD
:1021FC00004944F00064C3F800490B7802EB431328
:10220C00D3F8004944F08044C3F80049019B0133E2
:10221C000193019C42F210739C42DBD80B7802EBC9
:10222C004313D3F80039002BF0DB0020D2E7D3F8AE
:10223C00000B40F00060C3F8000B0B7802EB43136B
:10224C00D3F8000B40F08040C3F8000B019B013326
:10225C000193019842F21073984208D80B7802EB64
:10226C004313D3F8003B002BF0DB0020B2E7012036
:10227C00B0E710B59DF8084084B903334FEA930ECC
:10228C004FF0000C08E000EB023303F5805351F8DB
:10229C00044B1C600CF1010CF445F4D3002010BD70
:1022AC00F0B583B00C784B78012B2DD000EB441C8F
:1022BC000CF530631E69864D35401D611E69854DD8
:1022CC0035401D61002C40F0C7800C690CB18C6846
:1022DC000C618C680C621D69C4F312042C431C61E4
:1022EC001C6944F400241C61012A00F0D8800B798D
:1022FC00012B00F0DA80DCF8003B43F00443CCF80F
:10230C00003B002003B0F0BD0B6973BB00EB441322
:10231C00D3F810696F4D3540C3F81059D3F81059E4
:10232C0045F40025C3F81059D3F81069684D3540B1
:10233C00C3F81059012A4DD000EB4414D4F80039DD
:10234C0043F00443C4F800390B79012B6BD00B69B3
:10235C00002BD6D0D0F83438097801F00F010122C7
:10236C008A401343C0F83438CBE700EB441303F531
:10237C0010631E69564D35401D611E69554D354023
:10238C001D61D4B90E698D68AE4200D90D611D690D
:10239C0045F400251D611D690E69C6F3120635430F
:1023AC001D610D79012DC5D11D6925F0C0451D613B
:1023BC001D6945F000551D61BCE71E690D698F68EC
:1023CC003D44013DB5FBF7F5434F07EAC5453543A1
:1023DC001D61E0E7CB691BB100EB4412C2F8143964
:1023EC000B79012B08D000EB4414D4F8003943F0DE
:1023FC000443C4F8003984E7D0F8083813F4807F1C
:10240C0008D100EB4412D2F8003943F00053C2F863
:10241C000039E8E700EB4412D2F8003943F080535E
:10242C00C2F80039DFE7D0F8083813F4807F0CD1FC
:10243C00D4F8003943F00053C4F8003900920B8AE9
:10244C000A78C968FFF715FF5BE7D4F8003943F049
:10245C008053C4F80039F1E70C6954B91C698D68D4
:10246C00C5F312052C431C611C6944F400241C6147
:10247C003AE78D682C44013CB4FBF5F4A4B204FBA0
:10248C0005F50D621D69144E06EAC4442C431C610B
:10249C001C690D6AC5F312052C431C6124E7CA683C
:1024AC00002A3FF424AF5A6121E7D0F8083813F41E
:1024BC00807F06D1DCF8003B43F00053CCF8003BA6
:1024CC0019E7DCF8003B43F08053CCF8003B12E7F3
:1024DC000000F8FFFFFF07E00000F81F10B584466E
:1024EC0008464FEA920E02F00302002305E00CF5B9
:1024FC008051096840F8041B01337345F7D37AB156
:10250C000CF5805CDCF800400021CBB2DB0024FA37
:10251C0003F300F8013B0131013A92B2002AF4D1E5
:10252C0010BD0B784A78012A14D000EB4310D0F878
:10253C00002B002A06DB2BB1D0F8003B23F08043A4
:10254C00C0F8003BD0F8003B43F40013C0F8003B4C
:10255C000020704700EB4310D0F80029002A06DB5E
:10256C002BB1D0F8003923F08043C0F80039D0F8F3
:10257C00003943F40013C0F80039E9E70B784A78C6
:10258C00012A0ED000EB4310D0F8003B23F40013CB
:10259C00C0F8003B0B79023BDBB2012B15D90020B4
:1025AC00704700EB4310D0F8003923F40013C0F847
:1025BC0000390B79023BDBB2012BF0D8D0F8003993
:1025CC0043F08053C0F80039E9E7D0F8003B43F002
:1025DC008053C0F8003BE2E7D0F8003823F4FE63E8
:1025EC00C0F80038D0F80038090101F4FE610B4343
:1025FC00C0F8003800207047D0F8003E23F00303E9
:10260C00C0F8003ED0F8043823F00203C0F80438B8
:10261C0000207047D0F8003E23F00303C0F8003EC2
:10262C00D0F8043843F00203C0F804380020704797
:10263C004269806910407047D0F8183800F5006086
:10264C00C0691840000C7047D0F8183800F50060CD
:10265C00C069184080B2704700EB4111D1F8082BCB
:10266C0000F50060406910407047D0F81028D0F891
:10267C00343801F00F0C23FA0CF3DB01DBB21343FB
:10268C0000EB411000F510608068184070474069FD
:10269C0000F00100704738B50546C36823F0C0430D
:1026AC00C360012913D019BBC36843F08043C360D6
:1026BC000024012003F0B2F801342846FFF7E7FFAD
:1026CC0008B1312CF5D9322C14D0002038BDC36898
:1026DC0043F00053C3600024012003F09FF8013441
:1026EC002846FFF7D4FF0128EDD0312CF4D9EAE7C6
:1026FC000120EBE70120E9E7D0F80029054B134056
:10270C00C0F80039D0F8043843F48073C0F80438AA
:10271C000020704700F8FFFF10B4046C154B9C426E
:10272C0003D9D0F8003B002B16DB0024C0F8104B6B
:10273C00D0F8104B44F40024C0F8104BD0F8104BD8
:10274C0044F01804C0F8104BD0F8104B44F0C044BF
:10275C00C0F8104B012903D000205DF8044B7047E2
:10276C00C0F8142BD0F8003B43F08023C0F8003B9A
:10277C00F2E700BF0A30544F002800F0118338B53F
:10278C000446036813F0010F29D0A14A136903F022
:10279C003803926A102B19D0182B13D06368B3F539
:1027AC00803F43D0002B58D1994B1A6822F48032C9
:1027BC001A601A6822F480121A601A6822F48022B5
:1027CC001A6038E002F00302022AE7D1904B1B6832
:1027DC0013F4003F03D06368002B00F0E3822368FE
:1027EC0013F0020F00F0A280894A1369926A13F069
:1027FC00380374D0182B6FD0E368002B00F0C38023
:10280C0083490A6822F0190213430B6003F000F8A5
:10281C0005467F4B1B6813F0040F40F0AB8002F0B1
:10282C00F7FF401B0228F4D90320C2E2784A136850
:10283C0043F4803313606368002B3ED002F0E8FF52
:10284C000546734B1B6813F4003FC8D102F0E0FF40
:10285C00401B6428F5D90320ABE2B3F5A02F10D0B0
:10286C00B3F5A81F1BD06A4B1A6822F480321A6089
:10287C001A6822F480221A601A6822F480121A60F4
:10288C00D9E7634B1A6842F480221A601A6822F462
:10289C0080121A601A6842F480321A60CBE75C4BE3
:1028AC001A6842F480221A601A6842F480121A6084
:1028BC001A6842F480321A60BDE702F0A9FF05469F
:1028CC00534B1B6813F4003F89D002F0A1FF401B4F
:1028DC006428F5D903206CE212F0030F8CD14C4B19
:1028EC001B6813F0040F03D0E368002B00F05C822C
:1028FC00474A136823F01903E1680B43136002F095
:10290C0087FF0546424B1B6813F0040F06D102F0FB
:10291C007FFF401B0228F5D903204AE23C4A53684A
:10292C0023F0FE43216943EA01635360236813F0EB
:10293C00100F51D0364A136903F03803926A082BF2
:10294C0039D0182B33D0E369002B6CD0304A136884
:10295C0043F08003136002F05BFF05462C4B1B68B1
:10296C0013F4807F56D102F053FF401B0228F5D997
:10297C0003201EE2264A536823F0FE43216943EAF2
:10298C0001635360D2E7224A136823F001031360FA
:10299C0002F03EFF05461E4B1B6813F0040FC5D01A
:1029AC0002F036FF401B0228F5D9032001E202F0A9
:1029BC000302012AC7D1164B1B6813F4807F03D086
:1029CC00E369802B40F0F281114AD36823F07C53E9
:1029DC00216A43EA0163D360236813F0080F4AD0DD
:1029EC006369002B33D00A4A536F43F001035367DA
:1029FC0002F00EFF0546064B5B6F13F0020F3AD147
:102A0C0002F006FF401B0228F5D90320D1E100BFDC
:102A1C00004402588C4AD36823F07C53216A43EA61
:102A2C000163D360D8E7884A136823F080031360EE
:102A3C0002F0EEFE0546844B1B6813F4807FCBD06E
:102A4C0002F0E6FE401B0228F5D90320B1E17E4AD4
:102A5C00536F23F00103536702F0DAFE05467A4BFD
:102A6C005B6F13F0020F06D002F0D2FE401B02285F
:102A7C00F5D903209DE1236813F0200F29D0A36919
:102A8C009BB1714A136843F48053136002F0C0FE8B
:102A9C0005466D4B1B6813F4005F1AD102F0B8FEAB
:102AAC00401B0228F5D9032083E1674A136823F4FD
:102ABC008053136002F0ACFE0546634B1B6813F4A5
:102ACC00005F06D002F0A4FE401B0228F5D90320BB
:102ADC006FE1236813F0040F22D1636A002B00F01E
:102AEC006781594A126902F03802182A00F00E81E7
:102AFC00022B00F09480544A136823F08073136007
:102B0C0002F086FE0446504B1B6813F0007F00F069
:102B1C00FB8002F07DFE001B0228F4D9032048E163
:102B2C004A4A136843F48073136002F071FE054641
:102B3C00464B1B6813F4807F06D102F069FE401BE4
:102B4C006428F5D9032034E1A368012B0ED033BBE4
:102B5C003D4B1A6F22F001021A671A6F22F08002A5
:102B6C001A671A6F22F004021A6704E0364A136FD0
:102B7C0043F001031367A368002B3ED002F048FE1C
:102B8C000546314B1B6F13F0020FA6D102F040FE2D
:102B9C00401B41F288339842F3D9032009E1052BFD
:102BAC000FD0852B1BD0284B1A6F22F001021A670D
:102BBC001A6F22F004021A671A6F22F080021A6749
:102BCC00D9E7214B1A6F42F004021A671A6F22F0F0
:102BDC0080021A671A6F42F001021A67CBE71A4B90
:102BEC001A6F42F004021A671A6F42F080021A67D9
:102BFC001A6F42F001021A67BDE702F009FE0546A2
:102C0C00114B1B6F13F0020F3FF467AF02F000FE85
:102C1C00401B41F288339842F2D90320C9E00A4A9A
:102C2C00136823F08073136002F0F2FD0546064B27
:102C3C001B6813F0007F0BD002F0EAFD401B02284A
:102C4C00F5D90320B5E000BF0044025800480258F3
:102C5C005F4B996A5F4A0A40A16AE06A41EA001137
:102C6C000A439A62226B013AC2F30802616B013982
:102C7C00490289B20A43A16B0139090401F4FE012E
:102C8C000A43E16B0139090601F0FE410A431A635C
:102C9C00DA6A22F00102DA62596B4F4A0A40A16CDF
:102CAC0042EAC1025A63DA6A22F00C02216C0A432E
:102CBC00DA62DA6A22F00202616C0A43DA62DA6AD8
:102CCC0042F48032DA62DA6A42F40032DA62DA6AA8
:102CDC0042F48022DA62DA6A42F00102DA621A689D
:102CEC0042F080721A6002F093FD0446384B1B6868
:102CFC0013F0007F06D102F08BFD001B0228F5D9E2
:102D0C00032056E0002054E0002052E030498A6A4B
:102D1C00086B012B4ED002F00303A16A8B424BD1FE
:102D2C00C2F30512E36A9A4248D1C0F30802236B3E
:102D3C00013B9A4244D1C0F34622636B013B9A4259
:102D4C0040D1C0F30642A36B013B9A423CD1C0F385
:102D5C000660E36B013B984238D11D4B5B6BC3F3B0
:102D6C00CC03A26C9A4201D1002022E0184AD36A0B
:102D7C0023F00103D36202F04BFD054602F048FD3F
:102D8C00A842FBD0124A516B134B0B40A16C43EA87
:102D9C00C1035363D36A43F00103D362002008E0FC
:102DAC0001207047012004E0012002E0012000E036
:102DBC00002038BD0120FCE70120FAE70120F8E7EC
:102DCC000120F6E70120F4E70120F2E70120F0E70B
:102DDC00004402580CFCFFFF0700FFFF744B1B69FB
:102DEC0003F03803102B00F0DE80182B0FD00BB142
:102DFC00704870476E4B1B6813F0200F00F0D580A5
:102E0C006B4B1B68C3F3C1036B48D840704710B4BD
:102E1C00674B9A6A02F003029C6AC4F30510D96AE4
:102E2C0001F001015B6BC3F3CC0301FB03F307EE71
:102E3C00903AF8EE677A14F47C7F00F09480012AC3
:102E4C0066D0022A00F09280E2B107EE100AF8EE8A
:102E5C00476A9FED5A6A86EE267A554B1B6BC3F375
:102E6C00080306EE903AF8EE666A9FED556A67EE37
:102E7C00867A76EEA77AF7EE006A77EEA67A27EED8
:102E8C00277A61E04A4B1B6813F0200F23D0484986
:102E9C000A68C2F3C102484BD34007EE103AF8EE71
:102EAC00476A07EE100AB8EE476A86EE867A0B6B15
:102EBC00C3F3080306EE903AF8EE666A9FED406A9B
:102ECC0067EE867A76EEA77AF7EE006A77EEA67A48
:102EDC0027EE277A38E007EE100AF8EE476A9FEDE6
:102EEC00396A86EE267A324B1B6BC3F3080306EE67
:102EFC00903AF8EE666A9FED326A67EE867A76EE65
:102F0C00A77AF7EE006A77EEA67A27EE277A1BE00F
:102F1C0007EE100AF8EE476A9FED286A86EE267ACD
:102F2C00234B1B6BC3F3080306EE903AF8EE666A6C
:102F3C009FED236A67EE867A76EEA77AF7EE006A43
:102F4C0077EEA67A27EE277A194B1B6BC3F3462331
:102F5C00013307EE903AF8EE677AC7EE276AFCEE7B
:102F6C00E67A17EE900A5DF8044B704707EE100AEC
:102F7C00F8EE476A9FED146A86EE267A0C4B1B6BB3
:102F8C00C3F3080306EE903AF8EE666A9FED0C6AFE
:102F9C0067EE867A76EEA77AF7EE006A77EEA67A77
:102FAC0027EE277AD0E7094870470348704700BFDF
:102FBC000044025800093D000090D0030024744ADC
:102FCC00000000390024744C0024F44A00127A00EA
:102FDC00002800F0328170B50D4604469B4B1B68EF
:102FEC0003F00F038B420BD2984A136823F00F03A4
:102FFC000B431360136803F00F038B4240F01F81E7
:10300C00236813F0040F0CD02269914B9B6903F0D9
:10301C0070039A4205D98E498B6923F070031A43C9
:10302C008A61236813F0080F0CD06269884BDB6946
:10303C0003F070039A4205D98549CB6923F07003DC
:10304C001A43CA61236813F0100F0CD0A269804B8D
:10305C00DB6903F4E0639A4205D97D49CB6923F41B
:10306C00E0631A43CA61236813F0200F0CD0E269A5
:10307C00774B1B6A03F070039A4205D974490B6AAB
:10308C0023F070031A430A62236813F0020F0CD06A
:10309C00E2686F4B9B6903F00F039A4205D96C49A8
:1030AC008B6923F00F031A438A61236813F0010F15
:1030BC0041D0674A936923F47063A1680B43936111
:1030CC006368022B0AD0032B27D0012B2CD0604A2B
:1030DC00126812F0040F06D10120ADE0126812F450
:1030EC00003F00F0AE805A490A6922F007021343F0
:1030FC000B6102F08DFB0646554B1B6903F0380340
:10310C006268B3EBC20F16D002F082FB801B41F257
:10311C0088339842F0D903208EE04D4A126812F0A1
:10312C00007FE0D1012087E0494A126812F4807FC9
:10313C00D9D1012080E0236813F0020F0CD0E26893
:10314C00434B9B6903F00F039A4205D240498B69AC
:10315C0023F00F031A438A613C4B1B6803F00F03E7
:10316C00AB420AD9394A136823F00F032B4313607F
:10317C00136803F00F03AB4265D1236813F0040FFF
:10318C000CD02269324B9B6903F070039A4205D232
:10319C002F498B6923F070031A438A61236813F05B
:1031AC00080F0CD062692A4BDB6903F070039A425A
:1031BC0005D22749CB6923F070031A43CA612368EF
:1031CC0013F0100F0CD0A269214BDB6903F4E06300
:1031DC009A4205D21E49CB6923F4E0631A43CA61B3
:1031EC00236813F0200F0CD0E269194B1B6A03F013
:1031FC0070039A4205D216490B6A23F070031A43E6
:10320C000A62FFF7EBFD12498B69C3F30323114AE2
:10321C00D35C03F01F03D8408B6903F00F03D35C1E
:10322C0003F01F0320FA03F30B4A13600B4B1860D7
:10323C000B4B186802F08AFA70BD01207047012010
:10324C00FAE70120F8E70120F6E700BF0020005262
:10325C0000440258887E00086C000020700000209A
:10326C006800002008B5FFF7B9FD0B4A9369C3F35A
:10327C0003230A49CB5C03F01F0320FA03F3926982
:10328C0002F00F02885C00F01F0023FA00F0044AE1
:10329C001060044A136008BD00440258887E000880
:1032AC006C0000207000002008B5FFF7DBFF054B19
:1032BC00DB69C3F30213044AD35C03F01F03D84049
:1032CC0008BD00BF00440258887E000808B5FFF70F
:1032DC00C9FF054BDB69C3F30223044AD35C03F03B
:1032EC001F03D84008BD00BF00440258887E000868
:1032FC00404B9B6A03F00303032B79D070B5054652
:10330C000E463C4A136823F08063136002F080FA87
:10331C000446384B1B6813F0006F06D002F078FAA5
:10332C00031B022BF5D9032070BD324B9A6A22F491
:10333C007C32296842EA01329A626A68013AC2F325
:10334C000802A9680139490289B20A43E9680139BE
:10335C00090401F4FE010A4329690139090601F047
:10336C00FE410A439A63DA6A22F0C00269690A4391
:10337C00DA62DA6A22F02002A9690A43DA62DA6AAE
:10338C0022F01002DA62D96B1B4A0A40E96942EA60
:10339C00C102DA63DA6A42F01002DA62C6B91A467E
:1033AC00DB6A43F40023D362124A136843F0806350
:1033BC00136002F02DFA04460E4B1B6813F0006FDD
:1033CC0014D102F025FA001B0228F5D90320ABE733
:1033DC00012E05D0074AD36A43F40013D362E3E706
:1033EC00044AD36A43F48013D362DDE700209BE7E1
:1033FC0001207047004402580700FFFF404B9B6AB6
:10340C0003F00303032B79D070B505460E463C4AF6
:10341C00136823F08053136002F0FAF90446384B1A
:10342C001B6813F0005F06D002F0F2F9031B022BAD
:10343C00F5D9032070BD324B9A6A22F07C72296850
:10344C0042EA01529A626A68013AC2F30802A96818
:10345C000139490289B20A43E9680139090401F4C6
:10346C00FE010A4329690139090601F0FE410A43AC
:10347C001A64DA6A22F4406269690A43DA62DA6A27
:10348C0022F40072A9690A43DA62DA6A22F48072C1
:10349C00DA62596C1B4A0A40E96942EAC1025A6471
:1034AC00DA6A42F48072DA62C6B91A46DB6A43F40D
:1034BC008003D362124A136843F08053136002F006
:1034CC00A7F904460E4B1B6813F0005F14D102F0F1
:1034DC009FF9001B0228F5D90320ABE7012E05D07C
:1034EC00074AD36A43F08073D362E3E7044AD36A92
:1034FC0043F40003D362DDE700209BE70120704713
:10350C00004402580700FFFFF8B50446036813F0A7
:10351C00006F30D0C36EB3F5001F26D00ED8EBB1C0
:10352C00B3F5801F07D102210830FFF7E1FE0546F5
:10353C0045B12E4621E0012635461EE0B3F5401F6D
:10354C0009D100259C4A136D23F44013E16E0B4303
:10355C001365002611E0012635460EE0964AD36A23
:10356C0043F40033D3620025ECE702212830FFF747
:10357C0045FF0546DCE700263546236813F4807FBB
:10358C0027D0A36D042B20D8DFE803F00311180813
:10359C000800894AD36A43F40033D362C5B9864A1A
:1035AC00136D23F00703A16D0B43136511E000218C
:1035BC0004F10800FFF79CFE0546EFE7002104F13B
:1035CC002800FFF71BFF0546E8E70126354600E01B
:1035DC002E46236813F4007F1ED0E36D802B3BD066
:1035EC000CD89BB3402B06D1002104F10800FFF747
:1035FC007FFE054608E0012635460DE0B3F5807FD9
:10360C0002D0B3F5A07F1CD16DBB6B4A136D23F4B4
:10361C00E073E16D0B431365236813F4806F36D0B0
:10362C00236EB3F5806F58D022D8002B4FD0B3F552
:10363C00007F1AD1002104F10800FFF759FE05465E
:10364C001CE0C02BE0D001263546E5E75A4AD36A88
:10365C0043F40033D362D7E7002104F12800FFF7CD
:10366C00CDFE0546D0E72E46D6E7012635460EE0C0
:10367C00B3F5006F02D0B3F5206F22D1002D33D1FA
:10368C004D4A136D23F46063216E0B43136523685D
:10369C0013F0007F31D0E36C202B42D029D833B10A
:1036AC00102B23D1444AD36A43F40033D362002D48
:1036BC003ED1414AD36C23F03003E16C0B43D3640D
:1036CC001BE0B3F5C06FD9D001263546DFE73A4A87
:1036DC00D36A43F40033D362D0E7002104F128000D
:1036EC00FFF78CFE0546C9E72E46D0E70126354686
:1036FC0003E0302BDBD001263546236813F4805FC2
:10370C003BD0636EB3F5005F2FD016D83BB3B3F547
:10371C00805F0FD1002104F10800FFF7E9FD054699
:10372C0011E0022104F10800FFF7E2FD0546BEE7B7
:10373C002E46E2E7012635461FE0B3F5405F02D086
:10374C00B3F5804F08D1BDB91B4A136D23F4E04388
:10375C00616E0B43136510E0012635460DE0164AE9
:10376C00D36A43F40033D362EDE7002104F128005F
:10377C00FFF744FE0546E6E72E46236813F4005F88
:10378C0027D0A36EB3F5003F39D017D843B1B3F5AA
:10379C00803F0ED1012104F10800FFF7A9FD054679
:1037AC00A5BB054A136D23F4E023A16E0B431365EF
:1037BC000FE0012635460CE000440258B3F5802F8B
:1037CC00EED0B3F5A02FEBD0B3F5403FE8D00126F7
:1037DC003546236813F4804F26D0D4F8B030B3F1BB
:1037EC00005F4DD017D8002B3DD0B3F1805F0FD1C7
:1037FC00012104F10800FFF77BFD054633E00121B0
:10380C0004F12800FFF7FAFD0546C9E72E46E0E76C
:10381C000126354608E0B3F1A04F24D01DD9B3F1F1
:10382C00C04F20D001263546236813F4004F09D031
:10383C00A36FB3F1805F2CD0B3F1005F37D06BB3C3
:10384C0001263546236813F0807F46D0A36C032BEA
:10385C006FD8DFE803F03A35673AB3F1405F02D036
:10386C00B3F1804F09D195B98E4A936D23F0E043A3
:10387C00D4F8B0100B439365D6E701263546D3E751
:10388C00012104F12800FFF7B9FD0546EBE72E46B0
:10389C00CAE7844AD36A43F40033D36275B9814AC8
:1038AC00136D23F04053A16F0B431365CAE701213D
:1038BC0004F10800FFF71CFD0546EFE72E46C1E7B3
:1038CC00784AD36A43F40033D362ADBB754AD36CE8
:1038DC0023F00303A16C0B43D364236813F4800F10
:1038EC002CD1236813F0010F00F0A580D4F884309C
:1038FC00282B00F29E80DFE803F08B9C9C9C9C9C08
:10390C009C9C859C9C9C9C9C9C9C959C9C9C9C9C09
:10391C009C9C8B9C9C9C9C9C9C9C8B9C9C9C9C9CFD
:10392C009C9C8B00022104F10800FFF7E1FC05468A
:10393C00CBE701263546D0E72E46CEE75A4A136828
:10394C0043F48073136001F063FF0746564B1B680A
:10395C0013F4807F05D101F05BFFC01B6428F5D9FF
:10396C000325002D4AD14F4B1B6FD4F8B420534084
:10397C0013F4407F0CD04B4B1A6F22F44072196F2A
:10398C0041F480311967196F21F4803119671A6776
:10399C00D4F8B430B3F5807F15D08DBBD4F8B430E7
:1039AC0003F44072B2F5407F1ED03E4A136923F4F3
:1039BC007C5313613B490B6FD4F8B420C2F30B0258
:1039CC0013430B678DE701F023FF0746354B1B6F45
:1039DC0013F0020FE1D101F01BFFC01B41F2883341
:1039EC009842F3D90325D8E72E48026922F47C5279
:1039FC002E4901EA131313430361DBE72E4670E7EC
:103A0C002E466EE7012104F10800FFF771FC054614
:103A1C00F5B9244A536D23F03803D4F884100B43C2
:103A2C00536508E0012104F12800FFF7E7FC054687
:103A3C00EEE701263546236813F0020F19D0D4F8AF
:103A4C008030052B29D8DFE803F00B05210B0B0B7D
:103A5C002E46F0E7012104F10800FFF749FC05466A
:103A6C00F5B9104A536D23F00703D4F880100B43BB
:103A7C005365236813F0040F29D0D4F89C30052B20
:103A8C004BD8DFE803F01B15431B1B1B012104F172
:103A9C002800FFF7B3FC0546E2E701263546E8E7C8
:103AAC002E46E6E70044025800480258CFFFFF00BC
:103ABC00012104F10800FFF71BFC054685BBAC4A4D
:103ACC00936D23F00703D4F89C100B439365236884
:103ADC0013F0200F34D0D4F89830B3F1005F4ED0EF
:103AEC0023D843B1B3F1805F1CD1002104F108004D
:103AFC00FFF7FEFB0546002D48D19D4A536D23F080
:103B0C00E043D4F898100B43536519E0012104F1FC
:103B1C002800FFF773FC0546D0E701263546D6E7AB
:103B2C002E46D4E7012635460AE0B3F1804FE2D0A9
:103B3C00B3F1A04FDFD0B3F1405FDCD001263546A6
:103B4C00236813F0400F31D0D4F8A430B3F5006FD4
:103B5C004DD020D843B1B3F5806F19D1002104F1B9
:103B6C000800FFF7C5FB0546002D47D1804A936D31
:103B7C0023F4E053D4F8A4100B43936516E0022110
:103B8C0004F12800FFF73AFC0546B4E72E46D7E7C8
:103B9C00012635460AE0B3F5805FE5D0B3F5A05FAA
:103BAC00E2D0B3F5406FDFD001263546236813F021
:103BBC00800F33D0D4F8A830B3F5804F00F0A38039
:103BCC0021D843B1B3F5005F1AD1002104F10800EC
:103BDC00FFF78EFB0546002D40F09C80644A936DE8
:103BEC0023F46043D4F8A8100B43936516E002212C
:103BFC0004F12800FFF702FC0546B5E72E46D5E791
:103C0C00012635460AE0B3F5004FE4D0B3F5204F5A
:103C1C00E1D0B3F5C04FDED001263546236813F052
:103C2C00080F0CD0D4F88C30B3F5805F74D0504AA8
:103C3C00536D23F44053D4F88C100B435365236815
:103C4C0013F0100F0CD0D4F8A030B3F5807F6CD0EB
:103C5C00474A936D23F44073D4F8A0100B4393653B
:103C6C00236813F4002F0BD0D4F8AC30B3F5803F9D
:103C7C0074D0B3F5003F67D0002B5FD001263546DA
:103C8C00236813F4802F0CD0D4F89030B3F5001FB8
:103C9C007FD0B3F5401F72D0B3F5801F6AD00126D8
:103CAC003546236813F4803F08D0236D002B79D060
:103CBC00B3F5803F00F0848001263546236813F06D
:103CCC00005F40F08680236813F4003F00F08E8084
:103CDC00D4F88830B3F5807F00F0EB8040F283801D
:103CEC00B3F5007F03D0B3F5407F40F0E080002DAA
:103CFC0040F0E5801E4A536D23F44073D4F88810CD
:103D0C000B43536572E0022104F12800FFF776FBA8
:103D1C00054660E72E4681E7022104F12800FFF7F3
:103D2C006DFB002883D0012681E7022104F12800D5
:103D3C00FFF764FB00288BD0012689E7002104F1F2
:103D4C000800FFF7D5FA05467DB9094A936D23F4AF
:103D5C004033D4F8AC100B43936591E7022104F186
:103D6C002800FFF74BFB0546EEE72E4688E700BF21
:103D7C00004402586E4AD36A43F40033D3627DB9CF
:103D8C006B4A536D23F44013D4F890100B435365D6
:103D9C0087E7012104F12800FFF730FB0546EEE729
:103DAC002E467EE7624AD36A43F40033D36275B978
:103DBC005F4AD36C23F48033216D0B43D3647DE7CE
:103DCC00022104F10800FFF793FA0546EFE72E46AF
:103DDC0074E7022104F12800FFF710FB00283FF4E0
:103DEC0072AF01266FE7002B81D00126236813F4F4
:103DFC00801F06D04E4A136D23F00043E16F0B4336
:103E0C001365236813F4001F06D0494A136D23F081
:103E1C008073216F0B431365236813F4006F06D076
:103E2C00434A936D23F00063616F0B4393652368E2
:103E3C0013F0804F09D03E4B1A6922F400421A61EC
:103E4C001A69D4F8B8100A431A612368002B06DAF1
:103E5C00374AD36C23F04053616D0B43D364236812
:103E6C0013F4000F07D0324A536D23F44003D4F8F7
:103E7C0094100B435365636813F0010F21D16368F1
:103E8C0013F0020F26D1636813F0040F2BD1636873
:103E9C0013F0080F30D1636813F0100F35D163683D
:103EAC0013F0200F3AD106B101263046F8BD012699
:103EBC009CE71F4AD36A43F40033D36217E72E46BC
:103ECC0094E7002104F10800FFF712FA0028D6D07D
:103EDC000646D4E7012104F10800FFF709FA00288F
:103EEC00D1D00646CFE7022104F10800FFF700FA13
:103EFC000028CCD00646CAE7002104F12800FFF7C1
:103F0C007DFA0028C7D00646C5E7012104F1280038
:103F1C00FFF774FA0028C2D00646C0E7022104F16C
:103F2C002800FFF76BFA0028BDD00126BDE700BFC3
:103F3C000044025808B5FFF795F9054B1B6AC3F30B
:103F4C000213044AD35C03F01F03D84008BD00BF22
:103F5C0000440258887E000810B4784B9A6A9C6A18
:103F6C00C4F3053CD96AC1F30011DB6BC3F3CC037A
:103F7C0001FB03F314F47C3F00F0DB8002F003023E
:103F8C0007EE903AF8EE677A012A66D0022A00F022
:103F9C00B380E2B107EE10CAF8EE476A9FED686A8B
:103FAC0086EE267A654B9B6BC3F3080306EE903ABC
:103FBC00F8EE666A9FED636A67EE867A76EEA77A0C
:103FCC00F7EE006A77EEA67A27EE277A61E05B4B74
:103FDC001B6813F0200F23D058490A68C2F3C102A2
:103FEC00594BD34007EE103AF8EE476A07EE10CA69
:103FFC00B8EE476A86EE867A8B6BC3F3080306EE3F
:10400C00903AF8EE666A9FED4F6A67EE867A76EE26
:10401C00A77AF7EE006A77EEA67A27EE277A38E0D1
:10402C0007EE10CAF8EE476A9FED486A86EE267ACC
:10403C00424B9B6BC3F3080306EE903AF8EE666AAC
:10404C009FED406A67EE867A76EEA77AF7EE006A05
:10405C0077EEA67A27EE277A1BE007EE10CAF8EE69
:10406C00476A9FED376A86EE267A344B9B6BC3F317
:10407C00080306EE903AF8EE666A9FED326A67EE38
:10408C00867A76EEA77AF7EE006A77EEA67A27EEB6
:10409C00277A2A4A936BC3F3462307EE903AF8EE3D
:1040AC00677AF7EE006A77EEA67A87EE276ABCEE9F
:1040BC00C66A80ED006A936BC3F3064307EE903A31
:1040CC00F8EE677A77EEA67A87EE276ABCEEC66AB8
:1040DC0080ED016A936BC3F3066307EE903AF8EE3A
:1040EC00677A77EEA67AC7EE276AFCEEE66AC0ED31
:1040FC00026A5DF8044B704707EE10CAF8EE476A87
:10410C009FED136A86EE267A0C4B9B6BC3F3080368
:10411C0006EE903AF8EE666A9FED0A6A67EE867ACA
:10412C0076EEA77AF7EE006A77EEA67A27EE277A74
:10413C00AFE70023036043608360DAE70044025872
:10414C000024744A000000390090D0030024744C01
:10415C000024F44A10B4784B9A6A9C6AC4F3055C48
:10416C00D96AC1F300215B6CC3F3CC0301FB03F3ED
:10417C0014F07C7F00F0DB8002F0030207EE903A33
:10418C00F8EE677A012A66D0022A00F0B380E2B119
:10419C0007EE10CAF8EE476A9FED686A86EE267A3B
:1041AC00654B1B6CC3F3080306EE903AF8EE666A97
:1041BC009FED636A67EE867A76EEA77AF7EE006A71
:1041CC0077EEA67A27EE277A61E05B4B1B6813F03B
:1041DC00200F23D058490A68C2F3C102594BD3406F
:1041EC0007EE103AF8EE476A07EE10CAB8EE476AC7
:1041FC0086EE867A0B6CC3F3080306EE903AF8EE63
:10420C00666A9FED4F6A67EE867A76EEA77AF7EECE
:10421C00006A77EEA67A27EE277A38E007EE10CA06
:10422C00F8EE476A9FED486A86EE267A424B1B6C85
:10423C00C3F3080306EE903AF8EE666A9FED406A07
:10424C0067EE867A76EEA77AF7EE006A77EEA67AB4
:10425C0027EE277A1BE007EE10CAF8EE476A9FEDAF
:10426C00376A86EE267A344B1B6CC3F3080306EED2
:10427C00903AF8EE666A9FED326A67EE867A76EED1
:10428C00A77AF7EE006A77EEA67A27EE277A2A4A03
:10429C00136CC3F3462307EE903AF8EE677AF7EE09
:1042AC00006A77EEA67A87EE276ABCEEC66A80EDC6
:1042BC00006A136CC3F3064307EE903AF8EE677A84
:1042CC0077EEA67A87EE276ABCEEC66A80ED016AA5
:1042DC00136CC3F3066307EE903AF8EE677A77EE49
:1042EC00A67AC7EE276AFCEEE66AC0ED026A5DF8B4
:1042FC00044B704707EE10CAF8EE476A9FED136A3D
:10430C0086EE267A0C4B1B6CC3F3080306EE903A30
:10431C00F8EE666A9FED0A6A67EE867A76EEA77A01
:10432C00F7EE006A77EEA67A27EE277AAFE700233E
:10433C00036043608360DAE7004402580024744A47
:10434C00000000390090D0030024744C0024F44A7F
:10435C00F0B583B000236BE085685E000324B440A5
:10436C0025EA0405CC68B4402C438460456825EAF2
:10437C000C054C68C4F300149C402C43446069E069
:10438C00DD08083550F8254003F0070C4FEA8C0C7B
:10439C004FF00F0E0EFA0CFE24EA0E0E0C6904FA06
:1043AC000CF444EA0E0440F825406BE0092400E0CC
:1043BC00002404FA0EF42C430CF1020C694D45F860
:1043CC002C404FF0B0442568D44325EA02064F68D0
:1043DC0017F4801F01D042EA05064FF0B0452E605D
:1043EC006D6804EA05064F6817F4001F01D042EA15
:1043FC0005064FF0B0456E60D5F8845004EA05060A
:10440C004F6817F4003F01D042EA05064FF0B04563
:10441C00C5F88460D5F880502C404E6816F4803F67
:10442C0001D042EA05044FF0B042C2F8804001339B
:10443C000A6832FA03F400F092804FF0010C0CFA87
:10444C0003FC1CEA0202F2D04C6804F00304013CA9
:10445C00012C81D94C6804F00304032C0CD0C468E3
:10446C005D004FF0030C0CFA05FC24EA0C0C8C6874
:10447C00AC4044EA0C04C4604C6804F00304022C05
:10448C003FF47EAF04684FEA430E4FF0030C0CFA76
:10449C000EFC24EA0C0C4C6804F0030404FA0EF431
:1044AC0044EA0C0404604C6814F4403FBFD02E4C1A
:1044BC00D4F8545145F00205C4F85451D4F8544181
:1044CC0004F002040194019C4FEA930C0CF10205D8
:1044DC00244C54F8255003F0030E4FEA8E0E0F2493
:1044EC0004FA0EF425EA0405204CA0423FF460AF18
:1044FC0004F58064A04222D004F58064A04220D050
:10450C0004F58064A0421ED004F58064A0421CD047
:10451C0004F58064A0421AD004F58064A04218D03F
:10452C0004F58064A04216D004F58064A04214D037
:10453C0004F58064A0423FF439AF0A2439E7012422
:10454C0037E7022435E7032433E7042431E7052455
:10455C002FE706242DE707242BE7082429E703B0CF
:10456C00F0BD00BF0004005800440258000002587F
:10457C000AB181617047090481617047436901EA9E
:10458C00030221EA030141EA024181617047000004
:10459C0003682749274A934218BF8B422FD0183201
:1045AC0093422CD01832934229D01832934226D001
:1045BC001832934223D01832934220D018329342AF
:1045CC001DD002F55672934219D01832934216D070
:1045DC001832934213D01832934210D018329342AF
:1045EC000DD0183293420AD01832934207D01832A9
:1045FC00934204D023F0FF038365806D704710B4A1
:10460C00D9B210390C4AA2FB0142C2F302120B4C74
:10461C00A25CC2655F2907D9094A1A400432826537
:10462C00806D5DF8044B7047054A1A408265F7E7C8
:10463C001000024028000240ABAAAAAA587E00082B
:10464C0000FCFFFF83699BB9836A012B0AD0022B04
:10465C0002D00BB100207047C36A13F0807F2AD1BF
:10466C0000207047C36AB3F1C07F26D0002070478A
:10467C00B3F5005F0AD0836A022B26D9032B26D10F
:10468C00C36A13F0807F24D100207047836A032B08
:10469C0003D8DFE803F01404140A00207047C36A3F
:1046AC0013F0807F0DD100207047C36AB3F1C07F37
:1046BC0009D000207047012070470120704701206D
:1046CC00704701207047012070470120704700207F
:1046DC00704701207047000003682149214A93422A
:1046EC0018BF8B4227D01432934224D014329342F9
:1046FC0021D0143293421ED0143293421BD0143268
:10470C00934218D01432934215D0DAB2103A1649AB
:10471C00A1FB0212120915491944A8291ED9144BE0
:10472C0013449B000366134B436602F01F020123E4
:10473C00934083667047DBB2083B0F4AA2FB03230E
:10474C000E4A02EB1312920002660D4A4266C3F344
:10475C000413012202FA03F3836670470832DEE782
:10476C00085402581C540258ABAAAAAAF0FBFDBF6D
:10477C000082001080080240CDCCCCCC00960016F4
:10478C008058025801794A1E072A2BD830B4036886
:10479C00154D164CA34218BFAB4218D01434A3428B
:1047AC0015D01434A34212D01434A3420FD01434B5
:1047BC00A3420CD01434A34209D01434A34206D023
:1047CC000B4B0B449B00C3660A4B036705E00A4B7B
:1047DC000B449B00C366094B03670123934043675B
:1047EC0030BC7047704700BF085402581C54025824
:1047FC003F820010400902403F9600164059025873
:10480C0070B5044601F004F8002C00F0D581054683
:10481C0023686349634A934218BF8B420CBF012142
:10482C00002170D0183293426DD0183293426AD066
:10483C001832934267D01832934264D018329342A4
:10484C0061D0183293425ED002F5567293425AD020
:10485C001832934257D01832934254D018329342A4
:10486C0051D0183293424ED0183293424BD018325A
:10487C00934248D01832934245D04B494B4A93420D
:10488C0018BF8B4200F05081494A934200F04C8192
:10489C001432934200F048811432934200F0448168
:1048AC001432934200F040811432934200F03C8168
:1048BC001432934200F038813E4A934200F0348126
:1048CC001432934200F030811432934200F02C8168
:1048DC001432934200F028811432934200F0248168
:1048EC001432934200F020811432934200F01C8168
:1048FC001432934200F0188140236365032384F83B
:10490C00353001204AE0022284F83520002284F858
:10491C00342079BB284A93422CD01832934229D0A8
:10492C001832934226D01832934223D01832934235
:10493C0020D0183293421DD002F55672934219D0F2
:10494C001832934216D01832934213D01832934235
:10495C0010D0183293420DD0183293420AD018322C
:10496C00934207D01832934204D01A6822F0010205
:10497C001A6003E01A6822F001021A6023681A68B0
:10498C0012F0010F1AD000F043FF431B052BF5D991
:10499C0020236365032384F83530012070BD00BFEC
:1049AC001000024028000240082C02481C2C02482F
:1049BC00302C024808540258400002401A687F49C3
:1049CC001140A268E0680243206902436069024317
:1049DC00A0690243E0690243206A02430A43616A08
:1049EC00042900F096806168A1F12905A1F13F002E
:1049FC00032888BF052D0AD9A1F14700012806D943
:104A0C00A1F14F00032802D97439032901D842F4CB
:104A1C0080121A602668756925F00705636A1D43C4
:104A2C00042B08D1A36A1D43E36A23B12046FFF788
:104A3C0009FE002872D175612046FFF7A9FDE36DD0
:104A4C0003F01F023F239340836023685C495D4A57
:104A5C00934218BF8B4242D0183293423FD0183247
:104A6C0093423CD01832934239D01832934236D00C
:104A7C001832934233D01832934230D002F556722A
:104A8C0093422CD01832934229D01832934226D01C
:104A9C001832934223D01832934220D018329342CA
:104AAC001DD0183293421AD01832934217D0464A6E
:104ABC00934214D01432934211D0143293420ED03C
:104ACC00143293420BD01432934208D014329342D6
:104ADC0005D01432934202D01432934213D12046A3
:104AEC00FFF7FAFDA368802B59D0236E22791A6048
:104AFC00636EA26E5A606368013B072B52D9002388
:104B0C00E3662367636700206065012384F8353012
:104B1C0044E7E16A206B01430A4364E74023636581
:104B2C00012084F8350039E7022284F83520002270
:104B3C0084F834201A6825491140A268402A2CD0E8
:104B4C00802A27D00022E06842EAD002206942EA9B
:104B5C00D002606942EAD002A06942EAD002E06960
:104B6C0042EAD002206A42EA10120A431A60226812
:104B7C00174B1344174AA2FB03231B099B00E36545
:104B8C002046FFF705FDE26D02F01F0101228A406D
:104B9C0042605AE74FF48042D5E71022D3E7002356
:104BAC006360A2E72046FFF7EDFDE36E00221A607A
:104BBC00236F626F5A60A6E70120EFE63F8010FE7C
:104BCC001000024028000240085402580F00FEFF5B
:104BDC00F8ABFDA7CDCCCCCC002800F0288108B5D3
:104BEC00024690F83530DBB2022B03D080234365AC
:104BFC00012008BD0368904890498B4218BF83423E
:104C0C000CBF0120002065D018318B4262D01831C6
:104C1C008B425FD018318B425CD018318B4259D00B
:104C2C0018318B4256D018318B4253D001F5567146
:104C3C008B424FD018318B424CD018318B4249D01B
:104C4C0018318B4246D018318B4243D018318B42ED
:104C5C0040D018318B423DD018318B423AD0196874
:104C6C0021F00E0119601368734874498B4218BF08
:104C7C0083426AD072498B4267D018318B4264D020
:104C8C0018318B4261D018318B425ED018318B4277
:104C9C005BD018318B4258D001F556718B4254D0F1
:104CAC0018318B4251D018318B424ED018318B4277
:104CBC004BD018318B4248D018318B4245D018312B
:104CCC008B4242D018318B423FD0196821F0010140
:104CDC0019603EE0042182F8351080BB584A93429B
:104CEC002DD0183293422AD01832934227D0183242
:104CFC00934224D01832934221D0183293421ED0C2
:104D0C0002F5567293421AD01832934217D01832C9
:104D1C00934214D01832934211D0183293420ED0D1
:104D2C00183293420BD01832934208D01832934267
:104D3C0005D01A6822F001021A60002059E71A689F
:104D4C0022F001021A60002053E7196821F00101DA
:104D5C0019601368384839498B4218BF834242D0D6
:104D6C0018318B423FD018318B423CD018318B42DA
:104D7C0039D018318B4236D018318B4233D01831A0
:104D8C008B4230D001F556718B422CD018318B42AE
:104D9C0029D018318B4226D018318B4223D01831B0
:104DAC008B4220D018318B421DD018318B421AD037
:104DBC0018318B4217D023498B4214D014318B42BB
:104DCC0011D014318B420ED014318B420BD01431D4
:104DDC008B4208D014318B4205D014318B4202D057
:104DEC0014318B4217D1116E0B6823F480730B6056
:104DFC00906DD36D03F01F0101238B404360536E04
:104E0C00916E5960D36E33B1196821F480711960B9
:104E1C00136F516F5960012382F83530002382F8EB
:104E2C003430136D2BB1104698470020E1E6012079
:104E3C0070470020DDE600BF100002402800024051
:104E4C004000024008540258F0B583B004460023D9
:104E5C000193894B1D68894BA3FB0535AD0A876D02
:104E6C003E68D7F800C0036885498648834218BF5E
:104E7C008B420CBF0120002079D0834A934276D01C
:104E8C001832934273D01832934270D01832934236
:104E9C006DD0183293426AD01832934267D002F523
:104EAC005672934263D01832934260D018329342B8
:104EBC005DD0183293425AD01832934257D01832E0
:104ECC00934254D01832934251D0183293424ED060
:104EDC006E496F4A934218BF8B422AD06D4A934257
:104EEC0027D01432934224D01432934221D014325E
:104EFC0093421ED0143293421BD01432934218D0DA
:104F0C00654A934215D01432934212D01432934214
:104F1C000FD0143293420CD01432934209D0143275
:104F2C00934206D01432934203D01432934240F091
:104F3C0063821A68E16D01F01F010420884010EAB9
:104F4C000C0F00F0A98212F0040F00F0A58278601B
:104F5C0012F4004F00F05C8212F4803F40F0528259
:104F6C00A36C002B00F048822046984744E2E26D87
:104F7C0002F01F0108228A40324241D070BB424AE3
:104F8C0093422BD01832934228D01832934225D01A
:104F9C001832934222D0183293421FD018329342C7
:104FAC001CD002F55672934218D01832934215D089
:104FBC001832934212D0183293420FD018329342C7
:104FCC000CD01832934209D01832934206D01832C2
:104FDC00934203D01A68C2F3C00202E01A68C2F30B
:104FEC0080026AB11A6822F004021A60E36D03F0C1
:104FFC001F0208239340BB60636D43F0010363659C
:10500C00E26D02F01F0226FA02F313F0010F49D0F1
:10501C0023681B481B498B4218BF83423ED0183172
:10502C008B423BD018318B4238D018318B4235D063
:10503C0018318B4232D018318B422FD018318B4221
:10504C002CD001F556718B4228D018318B4225D0CB
:10505C0018318B4222D018318B421FD018318B4221
:10506C001CD018318B4219D018318B4216D0183104
:10507C008B4213D01B6815E070000020B5814E1BCD
:10508C00100002402800024040000240082C024858
:10509C001C2C0248302C0248085402585B6913F04F
:1050AC00800F3BD1E36D03F01F03042202FA03F3DC
:1050BC0033423FD02268964896498A4218BF8242B2
:1050CC0034D018318A4231D018318A422ED018315E
:1050DC008A422BD018318A4228D018318A4225D0E6
:1050EC0018318A4222D001F556718A421ED01831ED
:1050FC008A421BD018318A4218D018318A4215D0F6
:10510C0018318A4212D018318A420FD018318A4293
:10511C000CD018318A4209D013680BE0012393405C
:10512C00BB60636D43F002036365BBE7126812F06A
:10513C00020F3DD1E36D03F01F03102202FA03F3BB
:10514C0033425FD02268724872498A4218BF824249
:10515C0034D018318A4231D018318A422ED01831CD
:10516C008A422BD018318A4228D018318A4225D055
:10517C0018318A4222D001F556718A421ED018315C
:10518C008A421BD018318A4218D018318A4215D065
:10519C0018318A4212D018318A420FD018318A4203
:1051AC000CD018318A4209D01268C2F3800208E090
:1051BC00BB60636D43F004036365BBE71268C2F325
:1051CC00C002FAB1BB6023681A6812F4802F0DD0AC
:1051DC001B6813F4002F04D1236C9BB12046984715
:1051EC0010E0A36C73B1204698470BE01A6812F4D8
:1051FC00807F03D11A6822F008021A60236C0BB16D
:10520C0020469847E36D03F01F03202202FA03F3B4
:10521C00334200F0938022683D483E498A4218BFD1
:10522C0082422ED018318A422BD018318A4228D093
:10523C0018318A4225D018318A4222D018318A423C
:10524C001FD018318A421CD001F556718A4218D0F1
:10525C0018318A4215D018318A4212D018318A423C
:10526C000FD018318A420CD018318A4209D018312B
:10527C008A4206D018318A4203D01268C2F3400227
:10528C0002E01268C2F30012002A57D0BB6094F8F7
:10529C003530DBB2042B0ED023681A6812F4802F41
:1052AC003AD01B6813F4002F2DD1636C002B45D022
:1052BC002046984742E02268136823F016031360D7
:1052CC002268536923F080035361236CBBB12268BD
:1052DC00136823F008031360E36D03F01F023F23F0
:1052EC009340BB60012384F83530002384F83430BC
:1052FC00236D002B00F08080204698477CE0A36C47
:10530C00002BE4D1E8E7E36BC3B12046984715E0E6
:10531C0010000240280002401A6812F4807F09D164
:10532C001A6822F010021A60012384F83530002329
:10533C0084F83430E36B0BB120469847636D002B37
:10534C005AD0636D13F0010F52D0042384F835301A
:10535C0023689649964A934218BF8B422FD0183235
:10536C0093422CD01832934229D01832934226D033
:10537C001832934223D01832934220D018329342E1
:10538C001DD002F55672934219D01832934216D0A2
:10539C001832934213D01832934210D018329342E1
:1053AC000DD0183293420AD01832934207D01832DB
:1053BC00934204D01A6822F001021A6003E01A68C2
:1053CC0022F001021A60019B01330193AB4204D815
:1053DC0023681B6813F0010FF5D123681B6813F0C9
:1053EC00010F0BD0032384F83530002384F83430BC
:1053FC00E36C0BB12046984703B0F0BD012384F851
:10540C003530F2E7236C002BF6D020469847F3E7B3
:10541C0012F0200F3AD123686449654A934218BFB1
:10542C008B422FD0183293422CD01832934229D071
:10543C001832934226D01832934223D0183293421A
:10544C0020D0183293421DD002F55672934219D0D7
:10545C001832934216D01832934213D0183293421A
:10546C0010D0183293420DD0183293420AD0183211
:10547C00934207D01832934204D01A6822F00402E7
:10548C001A6003E01A6822F008021A60236C002BE1
:10549C00B2D020469847AFE70220884010EA0C0FA4
:1054AC0060D012F0020F5DD0786012F4004F0ED075
:1054BC0012F4803F05D1636C002B9DD02046984799
:1054CC009AE7E36B002B97D02046984794E712F0AD
:1054DC00200F40D123683549354A934218BF8B427F
:1054EC002FD0183293422CD01832934229D0183234
:1054FC00934226D01832934223D01832934220D0B4
:10550C00183293421DD002F55672934219D01832BC
:10551C00934216D01832934213D01832934210D0C3
:10552C00183293420DD0183293420AD0183293425B
:10553C0007D01832934204D01A6822F00A021A607B
:10554C0003E01A6822F014021A60012384F8353043
:10555C00002384F83430E36B002B3FF44DAF20462E
:10556C00984749E7082000FA01F111EA0C0F3FF4C3
:10557C0043AF12F0080F3FF43FAF1A6822F00E024F
:10558C001A60E36D03F01F03012202FA03F37B6040
:10559C00626584F83520002384F83430E36C002BEA
:1055AC003FF42AAF2046984726E700BF1000024080
:1055BC002800024038B50446224BDB6803F0070391
:1055CC00062B07D01F4BDB6803F03F03834236D01A
:1055DC00012038BD1B4AD36823F03F030343D3603B
:1055EC0000F016F90546174B5B6813F4005F07D102
:1055FC0000F00EF9431BB3F57A7FF4D90120E8E7EC
:10560C002E2C18BF1E2C08D02D2C14BF00230123C8
:10561C001D2C02D00BB90020DBE700F0F9F8044692
:10562C00084BDB6813F4803F07D100F0F1F8001B46
:10563C00B0F57A7FF4D90120CBE70020C9E7002030
:10564C00C7E700BF00480258024AD36843F0807392
:10565C00D360704700480258002807DB00F01F0297
:10566C00400901239340024A42F82030704700BFA2
:10567C0000E100E0002804DB0901C9B2044B195415
:10568C00704700F00F000901C9B2024B1954704762
:10569C0000E400E014ED00E000B500F00700C0F1FC
:1056AC00070CBCF1040F28BF4FF0040C031D062B94
:1056BC000FD9C31E4FF0FF3E0EFA0CF021EA000189
:1056CC0099400EFA03FE22EA0E0241EA02005DF84E
:1056DC0004FB0023EEE700000649CB6823F4E063EB
:1056EC001B041B0C000200F4E0600343024A1A4343
:1056FC00CA60704700ED00E00000FA0510B50446E2
:10570C00054BD868C0F30220FFF7C6FF01462046C0
:10571C00FFF7B0FF10BD00BF00ED00E008B5FFF7CC
:10572C009BFF08BD0138B0F1807F0BD24FF0E02316
:10573C005861054AF02182F8231000209861072255
:10574C001A6170470120704700ED00E0104B1B7888
:10575C000BB90120704710B504464FF47A70B0FBBA
:10576C00F3F30C4A1068B0FBF3F0FFF7DBFF68B9FA
:10577C000F2C01D901200AE0002221464FF0FF3006
:10578C00FFF7BCFF044B1C60002000E0012010BDA3
:10579C0064000020700000206800002010B5032079
:1057AC00FFF79AFFFDF71AFB0F498B69C3F303232D
:1057BC000E4AD35C03F01F03D8408B6903F00F0330
:1057CC00D35C03F01F0320FA03F3094A1360094B5F
:1057DC0018600020FFF7BAFF10B10124204610BD5D
:1057EC000446FBF7EDF8F9E700440258887E000800
:1057FC006C00002070000020034B1B78034A1168DA
:10580C000B441360704700BF64000020081F002089
:10581C00014B1868704700BF081F002038B50446BC
:10582C00FFF7F6FF0546B4F1FF3F02D0044B1B789F
:10583C001C44FFF7EDFF401BA042FAD338BD00BF5C
:10584C0064000020002857D010B5044690F8413071
:10585C00002B41D0242384F841302268136823F0B4
:10586C00010313606368226823F07063136122687C
:10587C00936823F400439360E368012B31D0A36851
:10588C00226843F404439360E368022B2FD0226810
:10589C0051681A4B0B4353602268D36823F40043BE
:1058AC00D360236962691343A169226843EA012327
:1058BC00D360E369216A22680B4313602268136882
:1058CC0043F00103136000206064202384F841300E
:1058DC00206384F8420010BD80F84030FAF7E0FEF7
:1058EC00B8E7A368226843F400439360CCE72368CD
:1058FC004FF400625A60CAE7012070470080000232
:10590C00034690F84120D2B2202A23D190F84020AF
:10591C00012A21D0012280F84020242280F8412045
:10592C000068026822F0010202601868026822F422
:10593C0080520260186802681143016019680A6895
:10594C0042F001020A60202283F84120002083F8F3
:10595C00400070470220704702207047034690F8C1
:10596C004120D2B2202A21D190F84020012A1FD008
:10597C00012280F84020242280F84120006802682F
:10598C0022F0010202601868026822F4706242EA96
:10599C000122026019680A6842F001020A602022A2
:1059AC0083F84120002083F84000704702207047A4
:1059BC000220704710B402685369916941F00801E4
:1059CC00916101688A6942F010028A6101680A6873
:1059DC0022F001020A6001680C69294A22400A611E
:1059EC0001688A6822F440428A6090F88120D2B221
:1059FC00042A0DD013F0200F0AD0D0F8842042F0E6
:105A0C008002C0F8842001688A6942F020028A6111
:105A1C0090F88120D2B2032A0DD013F0400F0AD097
:105A2C00D0F8842042F00402C0F8842001688A690E
:105A3C0042F040028A6113F4007F0AD0D0F884202F
:105A4C0042F00102C0F8842001688A6942F40072B5
:105A5C008A6113F4807F0AD0D0F8843043F00803B5
:105A6C00C0F884300268936943F480739361002317
:105A7C00A0F86230A0F86A305DF8044B704700BFA4
:105A8C0090FCFFFFC36B5B09C0680830C00803FBC8
:105A9C0000007047002800F0B78070B50446002362
:105AAC00836205685C4B5D4E9D4218BFB54214BFC6
:105ABC000126002607D0A3F574439D4203D0C3688A
:105ACC000F2B00F2A3802046FFF7DCFF2EB1544BC6
